{
  "address": "0xCf7Ed3AccA5a467e9e704C703E8D87F634fB0Fc9",
  "abi": [
    {
      "inputs": [],
      "name": "complete",
      "outputs": [
        {
          "internalType": "bool",
          "name": "",
          "type": "bool"
        }
      ],
      "stateMutability": "payable",
      "type": "function"
    },
    {
      "inputs": [],
      "name": "completed",
      "outputs": [
        {
          "internalType": "bool",
          "name": "",
          "type": "bool"
        }
      ],
      "stateMutability": "view",
      "type": "function"
    }
  ],
  "transactionHash": "0x07cab71ee95f1b5d04c54dddb7b853344af382b7f935fa65f9183066222ea453",
  "args": [],
  "solcInputHash": "1b1fca29272b210b8eaba5d74e09a0d7",
  "bytecode": "0x6080604052348015600f57600080fd5b5060a98061001e6000396000f3fe60806040526004361060265760003560e01c8063522e117714602b5780639d9a7fe9146045575b600080fd5b60316057565b604080519115158252519081900360200190f35b348015605057600080fd5b506031606a565b6000805460ff1916600190811790915590565b60005460ff168156fea26469706673582212204f5488b6f8595c1ff737c6cbba185b144613ea8f5979f0fa339c790b3df962b964736f6c63430007040033",
  "devdoc": {
    "kind": "dev",
    "methods": {},
    "version": 1
  },
  "userdoc": {
    "kind": "user",
    "methods": {},
    "version": 1
  },
  "storageLayout": {
    "storage": [
      {
        "astId": 3,
        "contract": "contracts/ExampleExternalContract.sol:ExampleExternalContract",
        "label": "completed",
        "offset": 0,
        "slot": "0",
        "type": "t_bool"
      }
    ],
    "types": {
      "t_bool": {
        "encoding": "inplace",
        "label": "bool",
        "numberOfBytes": "1"
      }
    }
  }
}