{
  "address": "0xa85233C63b9Ee964Add6F2cffe00Fd84eb32338f",
  "abi": [
    {
      "inputs": [
        {
          "internalType": "address",
          "name": "exampleExternalContractAddress",
          "type": "address"
        }
      ],
      "stateMutability": "nonpayable",
      "type": "constructor"
    },
    {
      "anonymous": false,
      "inputs": [
        {
          "indexed": false,
          "internalType": "address",
          "name": "staker",
          "type": "address"
        },
        {
          "indexed": false,
          "internalType": "uint256",
          "name": "poolId",
          "type": "uint256"
        }
      ],
      "name": "PoolCreation",
      "type": "event"
    },
    {
      "anonymous": false,
      "inputs": [
        {
          "indexed": false,
          "internalType": "uint256",
          "name": "poolId",
          "type": "uint256"
        }
      ],
      "name": "PoolEnd",
      "type": "event"
    },
    {
      "anonymous": false,
      "inputs": [
        {
          "indexed": false,
          "internalType": "uint256",
          "name": "poolId",
          "type": "uint256"
        },
        {
          "indexed": false,
          "internalType": "address",
          "name": "staker",
          "type": "address"
        },
        {
          "indexed": false,
          "internalType": "uint256",
          "name": "amount",
          "type": "uint256"
        }
      ],
      "name": "Stake",
      "type": "event"
    },
    {
      "inputs": [
        {
          "internalType": "address",
          "name": "",
          "type": "address"
        },
        {
          "internalType": "uint256",
          "name": "",
          "type": "uint256"
        }
      ],
      "name": "balances",
      "outputs": [
        {
          "internalType": "uint256",
          "name": "",
          "type": "uint256"
        }
      ],
      "stateMutability": "view",
      "type": "function"
    },
    {
      "inputs": [
        {
          "internalType": "uint256",
          "name": "_threshold",
          "type": "uint256"
        },
        {
          "internalType": "uint256",
          "name": "_deadline",
          "type": "uint256"
        }
      ],
      "name": "createPool",
      "outputs": [
        {
          "internalType": "uint256",
          "name": "",
          "type": "uint256"
        }
      ],
      "stateMutability": "nonpayable",
      "type": "function"
    },
    {
      "inputs": [],
      "name": "exampleExternalContract",
      "outputs": [
        {
          "internalType": "contract ExampleExternalContract",
          "name": "",
          "type": "address"
        }
      ],
      "stateMutability": "view",
      "type": "function"
    },
    {
      "inputs": [
        {
          "internalType": "uint256",
          "name": "_poolId",
          "type": "uint256"
        }
      ],
      "name": "execute",
      "outputs": [],
      "stateMutability": "nonpayable",
      "type": "function"
    },
    {
      "inputs": [
        {
          "internalType": "uint256",
          "name": "_poolId",
          "type": "uint256"
        },
        {
          "internalType": "address",
          "name": "_addr",
          "type": "address"
        }
      ],
      "name": "isParticipatingTo",
      "outputs": [
        {
          "internalType": "bool",
          "name": "",
          "type": "bool"
        }
      ],
      "stateMutability": "view",
      "type": "function"
    },
    {
      "inputs": [
        {
          "internalType": "address",
          "name": "",
          "type": "address"
        },
        {
          "internalType": "uint256",
          "name": "",
          "type": "uint256"
        }
      ],
      "name": "lock",
      "outputs": [
        {
          "internalType": "bool",
          "name": "",
          "type": "bool"
        }
      ],
      "stateMutability": "view",
      "type": "function"
    },
    {
      "inputs": [],
      "name": "poolCount",
      "outputs": [
        {
          "internalType": "uint256",
          "name": "",
          "type": "uint256"
        }
      ],
      "stateMutability": "view",
      "type": "function"
    },
    {
      "inputs": [
        {
          "internalType": "uint256",
          "name": "",
          "type": "uint256"
        }
      ],
      "name": "pools",
      "outputs": [
        {
          "internalType": "uint256",
          "name": "threshold",
          "type": "uint256"
        },
        {
          "internalType": "uint256",
          "name": "deadline",
          "type": "uint256"
        },
        {
          "internalType": "uint256",
          "name": "totalStaked",
          "type": "uint256"
        },
        {
          "internalType": "bool",
          "name": "executed",
          "type": "bool"
        }
      ],
      "stateMutability": "view",
      "type": "function"
    },
    {
      "inputs": [
        {
          "internalType": "uint256",
          "name": "_poolId",
          "type": "uint256"
        }
      ],
      "name": "stake",
      "outputs": [],
      "stateMutability": "payable",
      "type": "function"
    },
    {
      "inputs": [
        {
          "internalType": "uint256",
          "name": "_poolId",
          "type": "uint256"
        }
      ],
      "name": "timeleft",
      "outputs": [
        {
          "internalType": "uint256",
          "name": "",
          "type": "uint256"
        }
      ],
      "stateMutability": "view",
      "type": "function"
    },
    {
      "inputs": [
        {
          "internalType": "uint256",
          "name": "_poolId",
          "type": "uint256"
        }
      ],
      "name": "withdraw",
      "outputs": [],
      "stateMutability": "nonpayable",
      "type": "function"
    }
  ],
  "transactionHash": "0xc0f0527b326c71a60542b68923c7c3079eb3d595aeb445c3e16c27327c50deeb",
  "args": [
    "0x322813Fd9A801c5507c9de605d63CEA4f2CE6c44"
  ],
  "solcInputHash": "5de47960b72020370f8c360f3c18382d",
  "bytecode": "0x6080604052600060015534801561001557600080fd5b50604051610cca380380610cca8339818101604052602081101561003857600080fd5b5051600080546001600160a01b039092166001600160a01b0319909216919091179055610c608061006a6000396000f3fe60806040526004361061009c5760003560e01c8063a694fc3a11610064578063a694fc3a146101c6578063ac4afa38146101e3578063ba99470c14610235578063cbf1304d1461025f578063f525cb6814610298578063fe0d94c1146102ad5761009c565b8063282d3fdf146100a15780632e1a7d4d146100ee57806363aa673a1461011a57806374a110c2146101535780639f75f22714610195575b600080fd5b3480156100ad57600080fd5b506100da600480360360408110156100c457600080fd5b506001600160a01b0381351690602001356102d7565b604080519115158252519081900360200190f35b3480156100fa57600080fd5b506101186004803603602081101561011157600080fd5b50356102f7565b005b34801561012657600080fd5b506100da6004803603604081101561013d57600080fd5b50803590602001356001600160a01b03166105c2565b34801561015f57600080fd5b506101836004803603604081101561017657600080fd5b5080359060200135610643565b60408051918252519081900360200190f35b3480156101a157600080fd5b506101aa6106ba565b604080516001600160a01b039092168252519081900360200190f35b610118600480360360208110156101dc57600080fd5b50356106c9565b3480156101ef57600080fd5b5061020d6004803603602081101561020657600080fd5b503561082d565b6040805194855260208501939093528383019190915215156060830152519081900360800190f35b34801561024157600080fd5b506101836004803603602081101561025857600080fd5b5035610859565b34801561026b57600080fd5b506101836004803603604081101561028257600080fd5b506001600160a01b0381351690602001356108cc565b3480156102a457600080fd5b506101836108e9565b3480156102b957600080fd5b50610118600480360360208110156102d057600080fd5b50356108ef565b600460209081526000928352604080842090915290825290205460ff1681565b8060015481106103385760405162461bcd60e51b8152600401808060200182810382526023815260200180610c086023913960400191505060405180910390fd5b60008281526002602052604090206001015482904211610397576040805162461bcd60e51b81526020600482015260156024820152745468697320706f6f6c206973206c6976652062726f60581b604482015290519081900360640190fd5b336000818152600460209081526040808320878452909152902054849060ff16156103fc576040805162461bcd60e51b815260206004820152601060248201526f446f6e742074657374206d652062726f60801b604482015290519081900360640190fd5b6001600160a01b03821660009081526004602090815260408083208484528252808320805460ff191660011790558783526002918290529091208054910154106104775760405162461bcd60e51b8152600401808060200182810382526038815260200180610bd06038913960400191505060405180910390fd5b336000908152600360209081526040808320888452909152902054806104e4576040805162461bcd60e51b815260206004820152601d60248201527f4e6f7468696e6720796f752063616e2077697468647261772068657265000000604482015290519081900360640190fd5b604051600090339083908381818185875af1925050503d8060008114610526576040519150601f19603f3d011682016040523d82523d6000602084013e61052b565b606091505b5050905080610578576040805162461bcd60e51b815260206004820152601460248201527314d95b991a5b99c81b5bdb995e4819985a5b195960621b604482015290519081900360640190fd5b50503360009081526003602090815260408083209783529681528682208290556001600160a01b0393909316815260048352858120918152915292909220805460ff191690555050565b60008260015481106106055760405162461bcd60e51b8152600401808060200182810382526023815260200180610c086023913960400191505060405180910390fd5b6001600160a01b038316600090815260036020908152604080832087845290915290205415610637576001915061063c565b600091505b5092915050565b60018054808201909155600090610658610b26565b670de0b6b3a764000085028152428401602080830191825260006060840181815285825260029283905260409182902085518155935160018501559301519082015590516003909101805491151560ff19909216919091179055905092915050565b6000546001600160a01b031681565b80600154811061070a5760405162461bcd60e51b8152600401808060200182810382526023815260200180610c086023913960400191505060405180910390fd5b600082815260026020526040902060010154829042111561076a576040805162461bcd60e51b81526020600482015260156024820152745468697320706f6f6c20697320646f6e652062726f60581b604482015290519081900360640190fd5b600034116107b4576040805162461bcd60e51b815260206004820152601260248201527147696d6d6520796f206d6f6e65792062726f60701b604482015290519081900360640190fd5b33600081815260036020908152604080832087845282528083208054349081019091556002808452938290209093018054840190558051878152918201939093528083019190915290517f02567b2553aeb44e4ddd5d68462774dc3de158cb0f2c2da1740e729b22086aff9181900360600190a1505050565b600260208190526000918252604090912080546001820154928201546003909201549092919060ff1684565b600081600154811061089c5760405162461bcd60e51b8152600401808060200182810382526023815260200180610c086023913960400191505060405180910390fd5b600083815260026020526040812060010154429003908113156108c05791506108c6565b60009250505b50919050565b600360209081526000928352604080842090915290825290205481565b60015481565b8060015481106109305760405162461bcd60e51b8152600401808060200182810382526023815260200180610c086023913960400191505060405180910390fd5b6000828152600260205260409020600101548290421161098f576040805162461bcd60e51b81526020600482015260156024820152745468697320706f6f6c206973206c6976652062726f60581b604482015290519081900360640190fd5b60008381526002602052604090206003015460ff16156109e05760405162461bcd60e51b8152600401808060200182810382526022815260200180610bae6022913960400191505060405180910390fd5b600083815260026020819052604090912080549101541015610a335760405162461bcd60e51b815260040180806020018281038252605d815260200180610b51605d913960600191505060405180910390fd5b6000838152600260208181526040808420909201548354835163522e117760e01b815293519194936001600160a01b039091169263522e1177928692600480820193929182900301818588803b158015610a8c57600080fd5b505af1158015610aa0573d6000803e3d6000fd5b50505050506040513d6020811015610ab757600080fd5b5051905080610b04576040805162461bcd60e51b815260206004820152601460248201527314d95b991a5b99c81b5bdb995e4819985a5b195960621b604482015290519081900360640190fd5b505050600091825250600260205260409020600301805460ff19166001179055565b6040518060800160405280600081526020016000815260200160008152602001600015158152509056fe54686520706f6f6c206469646e7420726561636820746865207468726573686f6c6420616d6f75742c20676f20776974686472617720796f757220657468657273207573696e672077697468647261772066756e6374696f6e2062726f54686520706f6f6c2068617320616c7265616479206265656e20657865637574656454686520706f6f6c206973206120737563636573732c20796f75722065746865727320617265206d696e65206861686168612e2062726f2e5774662062726f207468697320706f6f6c20686173206e657665722065786973746564a26469706673582212204f7e44e9cfaf74e0595d5c5220e236b7e50710b4459bd69d1996012fcce0f4da64736f6c63430007040033",
  "devdoc": {
    "kind": "dev",
    "methods": {},
    "version": 1
  },
  "userdoc": {
    "kind": "user",
    "methods": {},
    "version": 1
  },
  "storageLayout": {
    "storage": [
      {
        "astId": 22,
        "contract": "contracts/Staker.sol:Staker",
        "label": "exampleExternalContract",
        "offset": 0,
        "slot": "0",
        "type": "t_contract(ExampleExternalContract)16"
      },
      {
        "astId": 25,
        "contract": "contracts/Staker.sol:Staker",
        "label": "poolCount",
        "offset": 0,
        "slot": "1",
        "type": "t_uint256"
      },
      {
        "astId": 38,
        "contract": "contracts/Staker.sol:Staker",
        "label": "pools",
        "offset": 0,
        "slot": "2",
        "type": "t_mapping(t_uint256,t_struct(Pool)34_storage)"
      },
      {
        "astId": 44,
        "contract": "contracts/Staker.sol:Staker",
        "label": "balances",
        "offset": 0,
        "slot": "3",
        "type": "t_mapping(t_address,t_mapping(t_uint256,t_uint256))"
      },
      {
        "astId": 50,
        "contract": "contracts/Staker.sol:Staker",
        "label": "lock",
        "offset": 0,
        "slot": "4",
        "type": "t_mapping(t_address,t_mapping(t_uint256,t_bool))"
      }
    ],
    "types": {
      "t_address": {
        "encoding": "inplace",
        "label": "address",
        "numberOfBytes": "20"
      },
      "t_bool": {
        "encoding": "inplace",
        "label": "bool",
        "numberOfBytes": "1"
      },
      "t_contract(ExampleExternalContract)16": {
        "encoding": "inplace",
        "label": "contract ExampleExternalContract",
        "numberOfBytes": "20"
      },
      "t_mapping(t_address,t_mapping(t_uint256,t_bool))": {
        "encoding": "mapping",
        "key": "t_address",
        "label": "mapping(address => mapping(uint256 => bool))",
        "numberOfBytes": "32",
        "value": "t_mapping(t_uint256,t_bool)"
      },
      "t_mapping(t_address,t_mapping(t_uint256,t_uint256))": {
        "encoding": "mapping",
        "key": "t_address",
        "label": "mapping(address => mapping(uint256 => uint256))",
        "numberOfBytes": "32",
        "value": "t_mapping(t_uint256,t_uint256)"
      },
      "t_mapping(t_uint256,t_bool)": {
        "encoding": "mapping",
        "key": "t_uint256",
        "label": "mapping(uint256 => bool)",
        "numberOfBytes": "32",
        "value": "t_bool"
      },
      "t_mapping(t_uint256,t_struct(Pool)34_storage)": {
        "encoding": "mapping",
        "key": "t_uint256",
        "label": "mapping(uint256 => struct Staker.Pool)",
        "numberOfBytes": "32",
        "value": "t_struct(Pool)34_storage"
      },
      "t_mapping(t_uint256,t_uint256)": {
        "encoding": "mapping",
        "key": "t_uint256",
        "label": "mapping(uint256 => uint256)",
        "numberOfBytes": "32",
        "value": "t_uint256"
      },
      "t_struct(Pool)34_storage": {
        "encoding": "inplace",
        "label": "struct Staker.Pool",
        "members": [
          {
            "astId": 27,
            "contract": "contracts/Staker.sol:Staker",
            "label": "threshold",
            "offset": 0,
            "slot": "0",
            "type": "t_uint256"
          },
          {
            "astId": 29,
            "contract": "contracts/Staker.sol:Staker",
            "label": "deadline",
            "offset": 0,
            "slot": "1",
            "type": "t_uint256"
          },
          {
            "astId": 31,
            "contract": "contracts/Staker.sol:Staker",
            "label": "totalStaked",
            "offset": 0,
            "slot": "2",
            "type": "t_uint256"
          },
          {
            "astId": 33,
            "contract": "contracts/Staker.sol:Staker",
            "label": "executed",
            "offset": 0,
            "slot": "3",
            "type": "t_bool"
          }
        ],
        "numberOfBytes": "128"
      },
      "t_uint256": {
        "encoding": "inplace",
        "label": "uint256",
        "numberOfBytes": "32"
      }
    }
  }
}