{
  "address": "0x9fE46736679d2D9a65F0992F2272dE9f3c7fa6e0",
  "abi": [
    {
      "anonymous": false,
      "inputs": [
        {
          "indexed": true,
          "internalType": "uint256",
          "name": "poolId",
          "type": "uint256"
        },
        {
          "indexed": true,
          "internalType": "address",
          "name": "staker",
          "type": "address"
        }
      ],
      "name": "PoolCreation",
      "type": "event"
    },
    {
      "anonymous": false,
      "inputs": [
        {
          "indexed": true,
          "internalType": "uint256",
          "name": "poolId",
          "type": "uint256"
        }
      ],
      "name": "PoolExecuted",
      "type": "event"
    },
    {
      "anonymous": false,
      "inputs": [
        {
          "indexed": true,
          "internalType": "uint256",
          "name": "poolId",
          "type": "uint256"
        },
        {
          "indexed": true,
          "internalType": "address",
          "name": "staker",
          "type": "address"
        }
      ],
      "name": "PoolWithdraw",
      "type": "event"
    },
    {
      "anonymous": false,
      "inputs": [
        {
          "indexed": true,
          "internalType": "uint256",
          "name": "poolId",
          "type": "uint256"
        },
        {
          "indexed": true,
          "internalType": "address",
          "name": "staker",
          "type": "address"
        },
        {
          "indexed": true,
          "internalType": "uint256",
          "name": "amount",
          "type": "uint256"
        }
      ],
      "name": "Stake",
      "type": "event"
    },
    {
      "inputs": [
        {
          "internalType": "address",
          "name": "",
          "type": "address"
        },
        {
          "internalType": "uint256",
          "name": "",
          "type": "uint256"
        }
      ],
      "name": "balances",
      "outputs": [
        {
          "internalType": "uint256",
          "name": "",
          "type": "uint256"
        }
      ],
      "stateMutability": "view",
      "type": "function"
    },
    {
      "inputs": [
        {
          "internalType": "uint256",
          "name": "_threshold",
          "type": "uint256"
        },
        {
          "internalType": "uint256",
          "name": "_deadline",
          "type": "uint256"
        },
        {
          "internalType": "address payable",
          "name": "_sendTo",
          "type": "address"
        }
      ],
      "name": "createPool",
      "outputs": [
        {
          "internalType": "uint256",
          "name": "",
          "type": "uint256"
        }
      ],
      "stateMutability": "nonpayable",
      "type": "function"
    },
    {
      "inputs": [
        {
          "internalType": "uint256",
          "name": "_poolId",
          "type": "uint256"
        }
      ],
      "name": "execute",
      "outputs": [],
      "stateMutability": "nonpayable",
      "type": "function"
    },
    {
      "inputs": [
        {
          "internalType": "uint256",
          "name": "_poolId",
          "type": "uint256"
        },
        {
          "internalType": "address",
          "name": "_addr",
          "type": "address"
        }
      ],
      "name": "isParticipatingTo",
      "outputs": [
        {
          "internalType": "bool",
          "name": "",
          "type": "bool"
        }
      ],
      "stateMutability": "view",
      "type": "function"
    },
    {
      "inputs": [],
      "name": "poolCount",
      "outputs": [
        {
          "internalType": "uint256",
          "name": "",
          "type": "uint256"
        }
      ],
      "stateMutability": "view",
      "type": "function"
    },
    {
      "inputs": [
        {
          "internalType": "uint256",
          "name": "",
          "type": "uint256"
        }
      ],
      "name": "pools",
      "outputs": [
        {
          "internalType": "uint256",
          "name": "threshold",
          "type": "uint256"
        },
        {
          "internalType": "uint256",
          "name": "deadline",
          "type": "uint256"
        },
        {
          "internalType": "uint256",
          "name": "totalStaked",
          "type": "uint256"
        },
        {
          "internalType": "address payable",
          "name": "sendTo",
          "type": "address"
        },
        {
          "internalType": "bool",
          "name": "executed",
          "type": "bool"
        }
      ],
      "stateMutability": "view",
      "type": "function"
    },
    {
      "inputs": [
        {
          "internalType": "uint256",
          "name": "_poolId",
          "type": "uint256"
        }
      ],
      "name": "stake",
      "outputs": [],
      "stateMutability": "payable",
      "type": "function"
    },
    {
      "inputs": [
        {
          "internalType": "uint256",
          "name": "_poolId",
          "type": "uint256"
        }
      ],
      "name": "timeleft",
      "outputs": [
        {
          "internalType": "uint256",
          "name": "",
          "type": "uint256"
        }
      ],
      "stateMutability": "view",
      "type": "function"
    },
    {
      "inputs": [
        {
          "internalType": "uint256",
          "name": "_poolId",
          "type": "uint256"
        }
      ],
      "name": "withdraw",
      "outputs": [],
      "stateMutability": "nonpayable",
      "type": "function"
    }
  ],
  "transactionHash": "0xf4ce57e3c71afd5cd0d3d4d5c56a2a8ea7d37b26b8c3d61b6c88184cae570145",
  "args": [],
  "solcInputHash": "ee361ceb6c42aadc37171e37bb844568",
  "bytecode": "0x6080604052600080556003805460ff1916905534801561001e57600080fd5b50610cba8061002e6000396000f3fe6080604052600436106100865760003560e01c8063ac4afa3811610059578063ac4afa3814610172578063ba99470c146101d2578063cbf1304d146101fc578063f525cb6814610235578063fe0d94c11461024a57610086565b80632e1a7d4d1461008b57806363aa673a146100b75780637fd8b9a214610104578063a694fc3a14610155575b600080fd5b34801561009757600080fd5b506100b5600480360360208110156100ae57600080fd5b5035610274565b005b3480156100c357600080fd5b506100f0600480360360408110156100da57600080fd5b50803590602001356001600160a01b0316610521565b604080519115158252519081900360200190f35b34801561011057600080fd5b506101436004803603606081101561012757600080fd5b50803590602081013590604001356001600160a01b03166105a2565b60408051918252519081900360200190f35b6100b56004803603602081101561016b57600080fd5b503561068a565b34801561017e57600080fd5b5061019c6004803603602081101561019557600080fd5b50356107dd565b604080519586526020860194909452848401929092526001600160a01b0316606084015215156080830152519081900360a00190f35b3480156101de57600080fd5b50610143600480360360208110156101f557600080fd5b503561081a565b34801561020857600080fd5b506101436004803603604081101561021f57600080fd5b506001600160a01b03813516906020013561088d565b34801561024157600080fd5b506101436108aa565b34801561025657600080fd5b506100b56004803603602081101561026d57600080fd5b50356108b0565b8060005481106102b55760405162461bcd60e51b8152600401808060200182810382526023815260200180610c626023913960400191505060405180910390fd5b8142600160008381526020019081526020016000206001015410610318576040805162461bcd60e51b81526020600482015260156024820152745468697320706f6f6c206973206c6976652062726f60581b604482015290519081900360640190fd5b60035460ff1615610368576040805162461bcd60e51b81526020600482015260156024820152744c696172212043686561746572212054686965662160581b604482015290519081900360640190fd5b6003805460ff191660019081179091556000848152602091909152604090208054600290910154106103cb5760405162461bcd60e51b8152600401808060200182810382526038815260200180610c2a6038913960400191505060405180910390fd5b33600090815260026020908152604080832086845290915290205480610438576040805162461bcd60e51b815260206004820152601d60248201527f4e6f7468696e6720796f752063616e2077697468647261772068657265000000604482015290519081900360640190fd5b604051600090339083908381818185875af1925050503d806000811461047a576040519150601f19603f3d011682016040523d82523d6000602084013e61047f565b606091505b50509050806104cc576040805162461bcd60e51b815260206004820152601460248201527314d95b991a5b99c81b5bdb995e4819985a5b195960621b604482015290519081900360640190fd5b3360008181526002602090815260408083208984529091528082208290555187917f3ceb37674be0001d002617fdc5593db16484470794ba8321288fd6e144f5270091a350506003805460ff19169055505050565b60008260005481106105645760405162461bcd60e51b8152600401808060200182810382526023815260200180610c626023913960400191505060405180910390fd5b6001600160a01b038316600090815260026020908152604080832087845290915290205415610596576001915061059b565b600091505b5092915050565b60008083116105b057600080fd5b6001600160a01b0382166105c357600080fd5b60008054600181019091556105d6610b70565b85815242850160208083019182526000608084018181526001600160a01b0388811660608701908152878452600194859052604080852088518155965195870195909555848701516002870155516003909501805492516001600160a01b0319909316959091169490941760ff60a01b1916600160a01b911515919091021790925551339184917f2f20e512c4f741f2807d702ff408750eb86f0607ccf0252de9bf2d4b74eef06e9190a350949350505050565b8060005481106106cb5760405162461bcd60e51b8152600401808060200182810382526023815260200180610c626023913960400191505060405180910390fd5b81426001600083815260200190815260200160002060010154101561072f576040805162461bcd60e51b81526020600482015260156024820152745468697320706f6f6c20697320646f6e652062726f60581b604482015290519081900360640190fd5b60003411610779576040805162461bcd60e51b815260206004820152601260248201527147696d6d6520796f206d6f6e65792062726f60701b604482015290519081900360640190fd5b33600081815260026020818152604080842088855282528084208054349081019091556001909252808420909201805482019055905190929186917f02567b2553aeb44e4ddd5d68462774dc3de158cb0f2c2da1740e729b22086aff9190a4505050565b600160208190526000918252604090912080549181015460028201546003909201549091906001600160a01b03811690600160a01b900460ff1685565b600081600054811061085d5760405162461bcd60e51b8152600401808060200182810382526023815260200180610c626023913960400191505060405180910390fd5b60008381526001602081905260408220015442900390811315610881579150610887565b60009250505b50919050565b600260209081526000928352604080842090915290825290205481565b60005481565b8060005481106108f15760405162461bcd60e51b8152600401808060200182810382526023815260200180610c626023913960400191505060405180910390fd5b8142600160008381526020019081526020016000206001015410610954576040805162461bcd60e51b81526020600482015260156024820152745468697320706f6f6c206973206c6976652062726f60581b604482015290519081900360640190fd5b60035460ff16156109a4576040805162461bcd60e51b81526020600482015260156024820152744c696172212043686561746572212054686965662160581b604482015290519081900360640190fd5b6003805460ff1916600190811782556000858152602091909152604090200154600160a01b900460ff1615610a0a5760405162461bcd60e51b8152600401808060200182810382526022815260200180610c086022913960400191505060405180910390fd5b600083815260016020526040902080546002909101541015610a5d5760405162461bcd60e51b815260040180806020018281038252605d815260200180610bab605d913960600191505060405180910390fd5b600083815260016020526040812060028101546003909101549091906001600160a01b0316825a6040519091906000818181858888f193505050503d8060008114610ac4576040519150601f19603f3d011682016040523d82523d6000602084013e610ac9565b606091505b5050905080610b16576040805162461bcd60e51b815260206004820152601460248201527314d95b991a5b99c81b5bdb995e4819985a5b195960621b604482015290519081900360640190fd5b600085815260016020526040808220600301805460ff60a01b1916600160a01b1790555186917f9b71b80499881a3683a1c9ab40c2c68bf1ca2bdc45b46d1b4b4fc0163c20f25791a250506003805460ff19169055505050565b6040518060a0016040528060008152602001600081526020016000815260200160006001600160a01b03168152602001600015158152509056fe54686520706f6f6c206469646e7420726561636820746865207468726573686f6c6420616d6f75742c20676f20776974686472617720796f757220657468657273207573696e672077697468647261772066756e6374696f6e2062726f54686520706f6f6c2068617320616c7265616479206265656e20657865637574656454686520706f6f6c206973206120737563636573732c20796f75722065746865727320617265206d696e65206861686168612e2062726f2e5774662062726f207468697320706f6f6c20686173206e657665722065786973746564a2646970667358221220713f547a2dab3259a7b848b3997b8dc5e55f247683981f3577d1a78e44d6d27464736f6c63430007040033",
  "devdoc": {
    "kind": "dev",
    "methods": {},
    "version": 1
  },
  "userdoc": {
    "kind": "user",
    "methods": {},
    "version": 1
  },
  "storageLayout": {
    "storage": [
      {
        "astId": 4,
        "contract": "contracts/Staker.sol:Staker",
        "label": "poolCount",
        "offset": 0,
        "slot": "0",
        "type": "t_uint256"
      },
      {
        "astId": 19,
        "contract": "contracts/Staker.sol:Staker",
        "label": "pools",
        "offset": 0,
        "slot": "1",
        "type": "t_mapping(t_uint256,t_struct(Pool)15_storage)"
      },
      {
        "astId": 25,
        "contract": "contracts/Staker.sol:Staker",
        "label": "balances",
        "offset": 0,
        "slot": "2",
        "type": "t_mapping(t_address,t_mapping(t_uint256,t_uint256))"
      },
      {
        "astId": 28,
        "contract": "contracts/Staker.sol:Staker",
        "label": "lock",
        "offset": 0,
        "slot": "3",
        "type": "t_bool"
      }
    ],
    "types": {
      "t_address": {
        "encoding": "inplace",
        "label": "address",
        "numberOfBytes": "20"
      },
      "t_address_payable": {
        "encoding": "inplace",
        "label": "address payable",
        "numberOfBytes": "20"
      },
      "t_bool": {
        "encoding": "inplace",
        "label": "bool",
        "numberOfBytes": "1"
      },
      "t_mapping(t_address,t_mapping(t_uint256,t_uint256))": {
        "encoding": "mapping",
        "key": "t_address",
        "label": "mapping(address => mapping(uint256 => uint256))",
        "numberOfBytes": "32",
        "value": "t_mapping(t_uint256,t_uint256)"
      },
      "t_mapping(t_uint256,t_struct(Pool)15_storage)": {
        "encoding": "mapping",
        "key": "t_uint256",
        "label": "mapping(uint256 => struct Staker.Pool)",
        "numberOfBytes": "32",
        "value": "t_struct(Pool)15_storage"
      },
      "t_mapping(t_uint256,t_uint256)": {
        "encoding": "mapping",
        "key": "t_uint256",
        "label": "mapping(uint256 => uint256)",
        "numberOfBytes": "32",
        "value": "t_uint256"
      },
      "t_struct(Pool)15_storage": {
        "encoding": "inplace",
        "label": "struct Staker.Pool",
        "members": [
          {
            "astId": 6,
            "contract": "contracts/Staker.sol:Staker",
            "label": "threshold",
            "offset": 0,
            "slot": "0",
            "type": "t_uint256"
          },
          {
            "astId": 8,
            "contract": "contracts/Staker.sol:Staker",
            "label": "deadline",
            "offset": 0,
            "slot": "1",
            "type": "t_uint256"
          },
          {
            "astId": 10,
            "contract": "contracts/Staker.sol:Staker",
            "label": "totalStaked",
            "offset": 0,
            "slot": "2",
            "type": "t_uint256"
          },
          {
            "astId": 12,
            "contract": "contracts/Staker.sol:Staker",
            "label": "sendTo",
            "offset": 0,
            "slot": "3",
            "type": "t_address_payable"
          },
          {
            "astId": 14,
            "contract": "contracts/Staker.sol:Staker",
            "label": "executed",
            "offset": 20,
            "slot": "3",
            "type": "t_bool"
          }
        ],
        "numberOfBytes": "128"
      },
      "t_uint256": {
        "encoding": "inplace",
        "label": "uint256",
        "numberOfBytes": "32"
      }
    }
  }
}