{
  "address": "0x9fE46736679d2D9a65F0992F2272dE9f3c7fa6e0",
  "abi": [
    {
      "anonymous": false,
      "inputs": [
        {
          "indexed": true,
          "internalType": "uint256",
          "name": "poolId",
          "type": "uint256"
        },
        {
          "indexed": true,
          "internalType": "address",
          "name": "staker",
          "type": "address"
        }
      ],
      "name": "PoolCreation",
      "type": "event"
    },
    {
      "anonymous": false,
      "inputs": [
        {
          "indexed": true,
          "internalType": "uint256",
          "name": "poolId",
          "type": "uint256"
        }
      ],
      "name": "PoolExecuted",
      "type": "event"
    },
    {
      "anonymous": false,
      "inputs": [
        {
          "indexed": true,
          "internalType": "uint256",
          "name": "poolId",
          "type": "uint256"
        },
        {
          "indexed": true,
          "internalType": "address",
          "name": "staker",
          "type": "address"
        }
      ],
      "name": "PoolWithdraw",
      "type": "event"
    },
    {
      "anonymous": false,
      "inputs": [
        {
          "indexed": true,
          "internalType": "uint256",
          "name": "poolId",
          "type": "uint256"
        },
        {
          "indexed": true,
          "internalType": "address",
          "name": "staker",
          "type": "address"
        },
        {
          "indexed": true,
          "internalType": "uint256",
          "name": "amount",
          "type": "uint256"
        }
      ],
      "name": "Stake",
      "type": "event"
    },
    {
      "inputs": [
        {
          "internalType": "uint256",
          "name": "_threshold",
          "type": "uint256"
        },
        {
          "internalType": "uint256",
          "name": "_deadline",
          "type": "uint256"
        },
        {
          "internalType": "address payable",
          "name": "_sendTo",
          "type": "address"
        }
      ],
      "name": "createPool",
      "outputs": [
        {
          "internalType": "uint256",
          "name": "",
          "type": "uint256"
        }
      ],
      "stateMutability": "nonpayable",
      "type": "function"
    },
    {
      "inputs": [
        {
          "internalType": "uint256",
          "name": "_poolId",
          "type": "uint256"
        }
      ],
      "name": "execute",
      "outputs": [],
      "stateMutability": "nonpayable",
      "type": "function"
    },
    {
      "inputs": [
        {
          "internalType": "uint256",
          "name": "_poolId",
          "type": "uint256"
        },
        {
          "internalType": "address",
          "name": "_addr",
          "type": "address"
        }
      ],
      "name": "isParticipatingTo",
      "outputs": [
        {
          "internalType": "bool",
          "name": "",
          "type": "bool"
        }
      ],
      "stateMutability": "view",
      "type": "function"
    },
    {
      "inputs": [
        {
          "internalType": "uint256",
          "name": "_poolId",
          "type": "uint256"
        }
      ],
      "name": "stake",
      "outputs": [],
      "stateMutability": "payable",
      "type": "function"
    },
    {
      "inputs": [
        {
          "internalType": "uint256",
          "name": "_poolId",
          "type": "uint256"
        }
      ],
      "name": "withdraw",
      "outputs": [],
      "stateMutability": "nonpayable",
      "type": "function"
    }
  ],
  "transactionHash": "0x7b24b57ec79b8f0b8dbd8b60f99d4b2cecf356909eb79bd100ae54a068e56b73",
  "args": [],
  "solcInputHash": "93d78b633bad9aa992cfb6fe8d0c0d6f",
  "bytecode": "0x608060405234801561001057600080fd5b50610cfe806100206000396000f3fe60806040526004361061004a5760003560e01c80632e1a7d4d1461004f57806363aa673a146100715780637fd8b9a2146100a6578063a694fc3a146100d4578063fe0d94c1146100e7575b600080fd5b34801561005b57600080fd5b5061006f61006a366004610b46565b610107565b005b34801561007d57600080fd5b5061009161008c366004610b5e565b61042f565b60405190151581526020015b60405180910390f35b3480156100b257600080fd5b506100c66100c1366004610b8d565b6104d3565b60405190815260200161009d565b61006f6100e2366004610b46565b61061c565b3480156100f357600080fd5b5061006f610102366004610b46565b6107bf565b600080516020610c89833981519152805482919082106101425760405162461bcd60e51b815260040161013990610bc5565b60405180910390fd5b6000838152600080516020610ca983398151915260205260409020600101548390600080516020610c898339815191529042116101b55760405162461bcd60e51b81526020600482015260116024820152705468697320706f6f6c206973206c69766560781b6044820152606401610139565b7f1e3473498986645b36f14b0b2fc09399f1a6b684f2943cf64c58018950046b1c54600080516020610c898339815191529060ff161561022f5760405162461bcd60e51b81526020600482015260156024820152744c696172212043686561746572212054686965662160581b6044820152606401610139565b6001818101805460ff191690911790556000868152600080516020610ca9833981519152602052604090208054600290910154600080516020610c8983398151915291116102db5760405162461bcd60e51b815260206004820152603360248201527f54686520706f6f6c206973206120737563636573732c20796f7572206574686560448201527239399030b9329036b4b732903430b430b4309760691b6064820152608401610139565b33600090815260038201602090815260408083208a8452909152902054806103455760405162461bcd60e51b815260206004820152601d60248201527f4e6f7468696e6720796f752063616e20776974686472617720686572650000006044820152606401610139565b604051600090339083908381818185875af1925050503d8060008114610387576040519150601f19603f3d011682016040523d82523d6000602084013e61038c565b606091505b50509050806103d45760405162461bcd60e51b815260206004820152601460248201527314d95b991a5b99c81b5bdb995e4819985a5b195960621b6044820152606401610139565b33600081815260038501602090815260408083208d8452909152808220829055518b917f3ceb37674be0001d002617fdc5593db16484470794ba8321288fd6e144f5270091a3505050600101805460ff191690555050505050565b600080516020610c898339815191528054600091849182106104635760405162461bcd60e51b815260040161013990610bc5565b6001600160a01b03841660009081527f1e3473498986645b36f14b0b2fc09399f1a6b684f2943cf64c58018950046b1e60209081526040808320888452909152902054600080516020610c8983398151915290156104c55760019350506104cb565b60009350505b505092915050565b60008083116104e157600080fd5b6001600160a01b0382166104f457600080fd5b600080516020610c8983398151915280548082600061051283610c3f565b91905055506105546040518060a0016040528060008152602001600081526020016000815260200160006001600160a01b031681526020016000151581525090565b61055f876001610c20565b815261056c866001610c20565b6105769042610c08565b60208083019182526000608084018181526001600160a01b03808a16606087019081528784526002808a01909552604080852088518155965160018801558088015195870195909555516003909501805492511515600160a01b026001600160a81b031990931695909116949094171790925551339184917f2f20e512c4f741f2807d702ff408750eb86f0607ccf0252de9bf2d4b74eef06e9190a35095945050505050565b600080516020610c898339815191528054829190821061064e5760405162461bcd60e51b815260040161013990610bc5565b6000838152600080516020610ca983398151915260205260409020600101548390600080516020610c89833981519152904211156106c25760405162461bcd60e51b81526020600482015260116024820152705468697320706f6f6c20697320646f6e6560781b6044820152606401610139565b600034116107035760405162461bcd60e51b815260206004820152600e60248201526d47696d6d6520796f206d6f6e657960901b6044820152606401610139565b3360009081527f1e3473498986645b36f14b0b2fc09399f1a6b684f2943cf64c58018950046b1e6020908152604080832088845290915281208054600080516020610c898339815191529234929161075c908490610c08565b90915550506000868152600280830160205260408220018054349290610783908490610c08565b90915550506040513490339088907f02567b2553aeb44e4ddd5d68462774dc3de158cb0f2c2da1740e729b22086aff90600090a4505050505050565b600080516020610c89833981519152805482919082106107f15760405162461bcd60e51b815260040161013990610bc5565b6000838152600080516020610ca983398151915260205260409020600101548390600080516020610c898339815191529042116108645760405162461bcd60e51b81526020600482015260116024820152705468697320706f6f6c206973206c69766560781b6044820152606401610139565b7f1e3473498986645b36f14b0b2fc09399f1a6b684f2943cf64c58018950046b1c54600080516020610c898339815191529060ff16156108de5760405162461bcd60e51b81526020600482015260156024820152744c696172212043686561746572212054686965662160581b6044820152606401610139565b6001818101805460ff191690911790556000868152600080516020610ca98339815191526020526040902060030154600080516020610c8983398151915290600160a01b900460ff161561097f5760405162461bcd60e51b815260206004820152602260248201527f54686520706f6f6c2068617320616c7265616479206265656e20657865637574604482015261195960f21b6064820152608401610139565b60008781526002808301602052604090912080549101541015610a305760405162461bcd60e51b815260206004820152605960248201527f54686520706f6f6c206469646e7420726561636820746865207468726573686f60448201527f6c6420616d6f75742c20676f20776974686472617720796f757220657468657260648201527f73207573696e672077697468647261772066756e6374696f6e00000000000000608482015260a401610139565b6000878152600280830160205260408220908101546003909101549091906001600160a01b0316825a6040519091906000818181858888f193505050503d8060008114610a99576040519150601f19603f3d011682016040523d82523d6000602084013e610a9e565b606091505b5050905080610ae65760405162461bcd60e51b815260206004820152601460248201527314d95b991a5b99c81b5bdb995e4819985a5b195960621b6044820152606401610139565b6000898152600284016020526040808220600301805460ff60a01b1916600160a01b179055518a917f9b71b80499881a3683a1c9ab40c2c68bf1ca2bdc45b46d1b4b4fc0163c20f25791a2505050600101805460ff191690555050505050565b600060208284031215610b57578081fd5b5035919050565b60008060408385031215610b70578081fd5b823591506020830135610b8281610c70565b809150509250929050565b600080600060608486031215610ba1578081fd5b83359250602084013591506040840135610bba81610c70565b809150509250925092565b60208082526023908201527f5774662062726f207468697320706f6f6c20686173206e6576657220657869736040820152621d195960ea1b606082015260800190565b60008219821115610c1b57610c1b610c5a565b500190565b6000816000190483118215151615610c3a57610c3a610c5a565b500290565b6000600019821415610c5357610c53610c5a565b5060010190565b634e487b7160e01b600052601160045260246000fd5b6001600160a01b0381168114610c8557600080fd5b5056fe1e3473498986645b36f14b0b2fc09399f1a6b684f2943cf64c58018950046b1b1e3473498986645b36f14b0b2fc09399f1a6b684f2943cf64c58018950046b1da26469706673582212202c082cbafa8d8e4b2757712a37cfcec1a8484b2f74302fc99e577493dc834f8764736f6c63430008030033",
  "devdoc": {
    "kind": "dev",
    "methods": {},
    "version": 1
  },
  "userdoc": {
    "kind": "user",
    "methods": {},
    "version": 1
  },
  "storageLayout": {
    "storage": [],
    "types": null
  }
}