{
  "address": "0x78De8db149496C8D67Fae5BEE2b1d3B943dC6D30",
  "abi": [
    {
      "inputs": [],
      "name": "complete",
      "outputs": [
        {
          "internalType": "bool",
          "name": "",
          "type": "bool"
        }
      ],
      "stateMutability": "payable",
      "type": "function"
    },
    {
      "inputs": [],
      "name": "completed",
      "outputs": [
        {
          "internalType": "bool",
          "name": "",
          "type": "bool"
        }
      ],
      "stateMutability": "view",
      "type": "function"
    }
  ],
  "transactionHash": "0xa3ada5a1c68cd3ff97604992c3e5d212fb984f9168f90de23f871279e62a4687",
  "args": [],
  "solcInputHash": "18125bfbaaff2d5affbf5a23468d7693",
  "bytecode": "0x6080604052348015600f57600080fd5b5060a98061001e6000396000f3fe60806040526004361060265760003560e01c8063522e117714602b5780639d9a7fe9146045575b600080fd5b60316057565b604080519115158252519081900360200190f35b348015605057600080fd5b506031606a565b6000805460ff1916600190811790915590565b60005460ff168156fea26469706673582212201386d6ddd0be69a760d0bdbf982d299de5234c51482e639f5d71235650e0ba5064736f6c63430007040033",
  "devdoc": {
    "kind": "dev",
    "methods": {},
    "version": 1
  },
  "userdoc": {
    "kind": "user",
    "methods": {},
    "version": 1
  },
  "storageLayout": {
    "storage": [
      {
        "astId": 3,
        "contract": "contracts/ExampleExternalContract.sol:ExampleExternalContract",
        "label": "completed",
        "offset": 0,
        "slot": "0",
        "type": "t_bool"
      }
    ],
    "types": {
      "t_bool": {
        "encoding": "inplace",
        "label": "bool",
        "numberOfBytes": "1"
      }
    }
  }
}